S00E0000656367656E322E73726563E2
S2144000007038402065234000E9234000E923400043
S214400010E9234000E9234000E923400000000000B7
S214400020000000000000000000000000E92340003F
S214400030E923400000000000E9234000753A4000F4
S214400040E9234000E9234000E9234000E92340003B
S214400050E9234000E9234000E9234000E92340002B
S214400060E9234000000000009D134000B513400007
S214400070CD134000E53B4000E9234000E923400023
S214400080E5134000FD134000E9234000E92340000B
S214400090E9234000E9234000E9234000E9234000EB
S2144000A0E9234000E9234000E9234000E9234000DB
S2144000B0E923400069124000E9234000393F4000F0
S2144000C0E9234000E9234000E9234000E9234000BB
S2144000D000000000E923400000000000E923400043
S2144000E07D124000E9234000E9234000E923400018
S2144000F0E9234000E9234000E9234000E92340008B
S214400100E9234000E9234000E9234000E92340007A
S214400110E92340000000000000000000000000004E
S214400120E9234000E9234000E9234000E92340005A
S214400130E923400000000000E9234000E923400096
S21440014010B5054C237833B9044B13B10448AFF3CC
S21440015000800123237010BD1409402000000000D9
S2144001603CDA4000084B10B51BB108480849AFF3CD
S21440017000800848036803B910BD074B002BFBD02E
S214400180BDE81040184700BF000000003CDA4000C1
S214400190180940203CDA40000000000080B582B0DC
S2144001A000AF78607B68072B30D801A252F823F066
S2144001B00D024000D1014000D9014000E10140005D
S2144001C0E9014000F1014000F9014000030240000F
S2144001D00020104B984719E001200E4B984715E039
S2144001E000200D4B984711E010200B4B98470DE030
S2144001F02020094B984709E000203E21074B9847AE
S21440020004E001203E21054B984700BF0837BD4615
S21440021080BD00BF111540007D154000ED15400023
S21440022080B582B000AF78607B68072B26D801A2E5
S21440023052F823F05502400059024000590240004F
S2144002406B0240006B0240006B0240006B024000B5
S2144002506B024000012312E00B4B98470346002BED
S21440026014BF01230023DBB209E0084B984703463E
S214400270002B14BF01230023DBB200E00023184606
S2144002800837BD4680BD00BF491540006516400092
S21440029080B483B000AF78607B68072B25D801A276
S2144002A052F823F0C5024000CB024000D102400085
S2144002B0D7024000DB024000DF024000E30240007D
S2144002C0E70240004FF4FA4310E04FF400430DE0DD
S2144002D04FF400430AE0084B08E0084B06E0084BA2
S2144002E004E0084B02E0064B00E0002318460C37BB
S2144002F0BD465DF8047B704700093D0000127A0059
S214400300001BB7000024F40080B582B000AF03465F
S214400310FB7100BFFB791846054B9847034683F0B0
S2144003200103DBB2002BF5D10837BD4680BD00BFC8
S2144003302102400080B586B000AFF8607A603B602E
S2144003400B46FB727B68002B07D13B68002B04D121
S214400350FB684FF470021A6019E0FB7A18460D4BA2
S214400360984702467B68B2FBF3F37B617B693A6849
S21440037002FB03F37B613B68013B1A04064B1340C8
S2144003807A68D2B2134343F47C52FB681A6018373B
S214400390BD4680BD910240000000FF0780B582B098
S2144003A000AF786039603B68002B08D1084B98470F
S2144003B0084A7B681B6843F00053936205E0054A91
S2144003C07B681B6843F48033D3610837BD4680BDE5
S2144003D08116400000060E4080B582B000AF7860BF
S2144003E07B68002B03D1054B9847034602E0044B3D
S2144003F09847034618460837BD4680BD99164000C4
S214400400B516400080B582B000AF0346FB71FB795D
S214400410033B042B08D8FB791846054B9847FB79D5
S2144004201846044B984700E000BF0837BD4680BDDD
S2144004309D0140000903400080B582B000AF78605F
S21440044000BF7868044B98470346002BF9D000233A
S21440045018460837BD4680BDD903400080B500AF7A
S2144004600620054B9847024613469B0013449A00C5
S21440047013449B08184680BD9102400080B500AFEB
S214400480024B98470346184680BD00BF5D044000B7
S21440049090B583B000AF1348134B98470620134BD4
S2144004A098473B1D1846062104221923104CA047A6
S2144004B03B1D184600210F4B984700200E4B98478F
S2144004C001200E4B984700200D4B98470D4B984700
S2144004D00D4B984703461846034B98470C37BD4686
S2144004E090BD00BF00A3E11159254000050440001F
S2144004F0350340009D034000390440001514400079
S2144005008D144000F12340007D04400080B586B045
S21440051000AFF860B9607A6000237B61FB68002B0F
S21440052002D04FF0FF3314E00FE00C4B1B680C4A30
S21440053012681046B9689847BB680133BB607B6950
S21440054001337B617B68013B7B607B68002BECDC86
S2144005507B6918461837BD4680BD00BF240A402038
S2144005602C0A402080B586B000AFF860B9607A604B
S21440057000237B61FB68012B08D0FB68022B05D06B
S214400580FB68032B02D04FF0FF331AE015E00F4B09
S2144005901A680F4B1868BB68591CB9601B78194617
S2144005A090470346002B02DA4FF0FF3309E07B69A1
S2144005B001337B617B68013B7B607B68002BE6D127
S2144005C07B6918461837BD4680BD00BF280A4020C4
S2144005D02C0A402080B582B000AF78607868024B25
S2144005E098470837BD4680BDD116400080B500AF5D
S2144005F00A20074B98470B20054B98470C20044B86
S21440060098471020024B98471120014B984780BDD1
S214400610D505400080B489B000AF78607B68FB6148
S214400620FB69BB61BB695A09FB697B617B6903F067
S2144006301F03012101FA03F33A61FB603B69BB608B
S214400640BA68054B13445B021A46FB68536024376E
S214400650BD465DF8047B70470707200080B487B02E
S21440066000AF786039607B687B613B683B617B6943
S214400670FB60FA68054B13445B021A463B695360BD
S2144006801C37BD465DF8047B704700BF0707200057
S21440069080B48BB000AFF860B9607A60FB687B626C
S2144006A0BB683B627B68FB617B6ABB61BA69374B60
S2144006B013445B027B61FB6903F00803002B03D005
S2144006C07B693A6A5A6602E07B693A6A1A66FB694F
S2144006D003F01003002B04D07B693A6AC3F89420D9
S2144006E003E07B693A6AC3F89020FB6903F0200375
S2144006F0002B03D07B693A6A1A6502E07B693A6A46
S2144007005A65FB6903F0C003002B03D07B693A6A45
S2144007101A6202E07B693A6A5A62FB6903F0800318
S214400720002B04D07B693A6AC3F8842003E07B69D7
S2144007303A6AC3F88020FB6903F00103002B06D019
S2144007407B691A6F3B6A1A437B691A6706E07B69C6
S2144007501A6F3B6ADB431A407B691A67FB6903F0F2
S2144007600203002B06D07B695A6F3B6A1A437B69AB
S2144007705A6706E07B695A6F3B6ADB431A407B69DF
S2144007805A672C37BD465DF8047B70470707200044
S21440079080B48DB000AF786039607B68FB623B68A0
S2144007A0BB62FB6A7B627B6A5A09FB6A3B623B6AB6
S2144007B003F01F03012101FA03F3FA61BB61BB6A30
S2144007C07B61FB693B613A69374B13445B02FB60D4
S2144007D07B6903F00803002B03D0FB68BA695A66AE
S2144007E002E0FB68BA691A667B6903F01003002BC7
S2144007F004D0FB68BA69C3F8942003E0FB68BA6982
S214400800C3F890207B6903F02003002B03D0FB68DD
S214400810BA691A6502E0FB68BA695A657B6903F0F3
S214400820C003002B03D0FB68BA691A6202E0FB687B
S214400830BA695A627B6903F08003002B04D0FB68D8
S214400840BA69C3F8842003E0FB68BA69C3F880201D
S2144008507B6903F00103002B06D0FB681A6FBB6967
S2144008601A43FB681A6706E0FB681A6FBB69DB43EE
S2144008701A40FB681A677B6903F00203002B06D018
S214400880FB685A6FBB691A43FB685A6706E0FB6809
S2144008905A6FBB69DB431A40FB685A673437BD461C
S2144008A05DF8047B704700BF0707200080B48DB01A
S2144008B000AF78600B46FB707B68FB62FB7887F87E
S2144008C02B30FB6A7B627B6A3B623B6A5B09FB615F
S2144008D0FA69174B13445B02BB6197F82B30012B28
S2144008E009D1FB6A7B617B6903F01F0301229A40B2
S2144008F0BB691A610CE097F82B30002B08D1FB6AD5
S2144009003B613B6903F01F0301229A40BB695A6171
S214400910FB6AFB60FB6803F01F0301229A40BB6939
S214400920C3F8A0203437BD465DF8047B704700BF4F
S2144009300707200080B48BB000AF78600B46FB7092
S2144009407B687B62FB7887F823307B6AFB61FB69B8
S214400950BB61BB695B097B617A69104B13445B02E0
S2144009603B6197F82330002B09D07B6AFB60FB681D
S21440097003F01F0301229A403B691A6308E07B6A32
S214400980BB60BB6803F01F0301229A403B695A6371
S2144009902C37BD465DF8047B704700BF0707200034
S2144009A080B48DB000AF78600B46FB707B68FB620E
S2144009B0FB7887F82B30FB6A7B627B6A5A09FB6AB6
S2144009C03B623B6A03F01F03012101FA03F3FA611D
S2144009D0BB6197F82B30FB75FB693B613A69224B4C
S2144009E013445B02FB60FB7D013B032B2ED801A228
S2144009F052F823F0290A40003B0A4000050A40000E
S214400A00170A4000FB68BA69C3F8C420FB68BA6995
S214400A10C3F8D0201FE0FB68BA69C3F8C420FB685F
S214400A20BA69C3F8D42016E0FB68BA69C3F8C02098
S214400A30FB68BA69C3F8D0200DE0FB68BA69C3F812
S214400A40C020FB68BA69C3F8D42004E0FB68BA69E2
S214400A50C3F8B42003E0FB68BA69C3F8B020343763
S214400A60BD465DF8047B70470707200080B500AFA1
S214400A703B4B4FF400425A603A4B98475020012176
S214400A80394B984750200121384B98470220012186
S214400A90354B984702200121344B984701200121CD
S214400AA0314B984701200121304B984700200121C7
S214400AB02D4B9847002000212C4B984715200121AC
S214400AC0294B984715200021284B98474D20002158
S214400AD0254B98474E200021234B98470B2000215A
S214400AE0214B98470B208821214B98470B20022109
S214400AF0204B984700204FF4C06100221E4B984779
S214400B0000204FF4C0611D4B984703200021184B2E
S214400B10984703201A4B984704200021144B9847C7
S214400B200420174B98470B200121114B98470B2068
S214400B30134B9847202002210D4B98472020104BFE
S214400B409847212002210A4B984721200C4B984772
S214400B5023200221064B98472320094B984780BD07
S214400B6050180E40ED054000AD08400035094000E5
S214400B7091074000A1094000910640005D064000F4
S214400B801506400080B483B000AF0346FB710849A9
S214400B9097F907305B09FA7902F01F02012000FA44
S214400BA002F241F823200C37BD465DF8047B7047BF
S214400BB000E100E080B483B000AF0346FB71094912
S214400BC097F907305B09FA7902F01F02012000FA14
S214400BD002F2603341F823200C37BD465DF8047BB3
S214400BE0704700BF00E100E080B483B000AF03462A
S214400BF03960FB7197F90730002B0BDA0D49FB790A
S214400C0003F00F03043B3A68D2B25201D2B20B440F
S214400C101A7609E0084997F907303A68D2B2520185
S214400C20D2B20B4483F800230C37BD465DF8047BF4
S214400C30704700BF00ED00E000E100E080B483B004
S214400C4000AFEFF310833B603B68002B0CBF0123E3
S214400C500023DBB27B6072B6BFF35F8F044B00228B
S214400C601A707B6818460C37BD465DF8047B7047A3
S214400C700000402080B483B000AF78607B68002BD3
S214400C8014BF01230023DBB218460C37BD465DF87F
S214400C90047B704780B582B000AF78607868074BB9
S214400CA098470346002B05D0054B01221A70BFF328
S214400CB05F8F62B60837BD4680BD00BF750C4000EA
S214400CC00000402080B483B000AF78600B467B8045
S214400CD00C37BD465DF8047B704700BF80B483B0D8
S214400CE000AF78607B681B6B18460C37BD465DF8D6
S214400CF0047B704780B584B000AF0346FB71FB7938
S214400D000A4AD35CFF2B00D1FEE7094B9847F860B0
S214400D10FB79064AD25C0132D1B2044AD154F86813
S214400D20044B98471037BD4680BD00BF1C0A402084
S214400D303D0C4000950C400080B483B000AF786016
S214400D407B68072B25D801A252F823F06D0D400092
S214400D50730D4000790D40007F0D4000830D40002C
S214400D60870D40008B0D40008F0D40004FF4FA4336
S214400D7010E04FF400430DE04FF400430AE0084B08
S214400D8008E0084B06E0084B04E0084B02E0064B40
S214400D9000E0002318460C37BD465DF8047B7047DC
S214400DA000093D0000127A00001BB7000024F40042
S214400DB080B500AF0620054B9847024613469B0079
S214400DC013449A0013449B08184680BD390D4000D2
S214400DD080B500AF024B98470346184680BD00BF1B
S214400DE0B10D400080B483B000AF78607B68094A9C
S214400DF0934201D1012306E07B68074A934201D122
S214400E00002300E0002318460C37BD465DF8047BFF
S214400E10704700BF0040064000C0034080B483B027
S214400E2000AF78607B68094A934201D1282306E0E8
S214400E307B68074A934201D11D2300E01D231846D4
S214400E400C37BD465DF8047B704700BF0040064047
S214400E5000C0034080B485B000AF7860396000239E
S214400E60FB603B68DB7C002B02D04FF0004200E08A
S214400E7000223B6859683B689B68B1FBF3F3013B33
S214400E801B029BB21A433B681B7C1B0603F0706335
S214400E901A433B685B7C1B0703F040531A433B688E
S214400EA0DB68134343F40003FB607B68FA685A60D0
S214400EB03B681B7D002B02D04FF0807200E0002282
S214400EC03B681B681A433B685B7D002B02D04FF0A3
S214400ED0007300E000231A437B689A603B689B7D62
S214400EE01B0203F4407343F00C027B68C3F8942063
S214400EF01437BD465DF8047B704700BF80B586B0AA
S214400F0000AFF8600B467A607B817B89F8681946AB
S214400F101D4B984700237B61FB681B6E7B617B897A
S214400F20012202FA03F3DB437A6913407B617B6854
S214400F301B78002B04D07B89012202FA03F300E0E1
S214400F4000237A6913437B61FB687A691A66FB68FB
S214400F505B6D7B617B895B00032202FA03F3DB4314
S214400F607A6913407B617B685B781A467B895B00B5
S214400F7002FA03F31A467B6913437B61FB687A697E
S214400F805A651837BD4680BDC50C400080B582B056
S214400F9000AF78607B6800221A60124B9847024682
S214400FA07B685A607B68104A9A607B684FF4802260
S214400FB0DA607B6802221A747B6801225A747B6866
S214400FC001229A747B680022DA747B6801221A75C3
S214400FD07B6801225A757B6801229A750837BD46A0
S214400FE080BD00BFD10D4000808D5B0080B483B0D3
S214400FF000AF78607B6800221A707B6801225A70C6
S2144010000C37BD465DF8047B704700BF80B584B0A2
S21440101000AF786039607868174B9847034603F00E
S2144010208073002B01D0192321E07B6801221A60CF
S21440103078683968114B98470023FB6013E000231B
S214401040BB600AE00E49FB681A01BB6813440022E5
S21440105041F82320BB680133BB60BB680F2BF1D936
S214401060FB680133FB60FB68012BE8D900235BB2C9
S21440107018461037BD4680BDDD0C4000550E40007A
S214401080300A402080B586B000AFF860B9607A601C
S214401090FB70F868174B9847786117497B691A01C7
S2144010A0BB6813447A6841F823207B69002B0BD138
S2144010B01D20124B9847FB781D201946104B984729
S2144010C01D20104B98470DE07B69012B0AD1282044
S2144010D00A4B9847FB7828201946094B9847282002
S2144010E0084B9847F868B968074B98471837BD4685
S2144010F080BD00BFE50D4000300A4020B50B4000E3
S214401100E90B4000850B40000D11400080B483B0D1
S21440111000AF786039603B68194A934203D17B68D8
S214401120174A5A6226E03B680B2B0FD83B680B2BBE
S21440113004D17B684FF400625A621BE03B68012290
S21440114002FA03F31A467B685A6213E03B680E2B9A
S21440115008D83B680C331A46012393401A467B68EE
S2144011605A6207E03B680F331A46012393401A46FB
S2144011707B685A620C37BD465DF8047B704700BFFB
S214401180FF0F004780B582B000AF03463960FB7161
S214401190FB7909491A013B68134451F82330002B68
S2144011A007D0FB7904491A013B68134451F82330B1
S2144011B098470837BD4680BD300A402080B586B087
S2144011C000AF78607868254B98470346FB607868A0
S2144011D0234B9847386100237B6139E07B690B2BB2
S2144011E00FD87B69012202FA03F31A46FB681340C4
S2144011F0002B2AD03B69DBB218467969194B9847D1
S21440120023E07B690E2B10D87B690C331A460123EA
S21440121093401A46FB681340002B16D03B69DBB25E
S214401220184679690F4B98470FE07B690F331A468B
S214401230012393401A46FB681340002B05D03B69B8
S214401240DBB218467969074B98477B6901337B6167
S2144012507B690F2BC2D91837BD4680BDDD0C4000D8
S214401260E50D40008511400080B500AF0148024BB7
S214401270984780BD00C00340BD11400080B500AF18
S2144012800148024B984780BD00400640BD114000D3
S21440129080B584B000AF78607868064B9847F860B1
S2144012A0F868054B98470220044B98471037BD46D0
S2144012B080BD00BF1D0E4000D1164000F50C40001A
S2144012C080B483B000AF78607B68DB6C18460C3720
S2144012D0BD465DF8047B704780B483B000AF78604D
S2144012E07B689B6C18460C37BD465DF8047B7047A0
S2144012F080B584B000AF786039607868244B9847F2
S214401300F8607868234B98470246FB681340FB60BA
S214401310FB68002B38D00023BB6032E01E4ABB6817
S2144013201B0113441A683B689A4223D11A4ABB6889
S2144013301B0113445A68FB681340002B1AD0164A08
S214401340BB681B01134408335B681349BA68120133
S2144013500A4410681049BA6812010A445268114695
S21440136098470D4ABB681B0113445B68DB43FA6829
S2144013701340FB60BB680133BB60BB68062B00D9DB
S21440138002E0FB68002BC9D11037BD4680BD00BFC8
S214401390C1124000D91240003009402080B500AF4D
S2144013A002480A21024B984780BD00BF000E0E40FF
S2144013B0F112400080B500AF02480B21024B98471F
S2144013C080BD00BF00100E40F112400080B500AF57
S2144013D002480C21024B984780BD00BF00120E40C9
S2144013E0F112400080B500AF02481021024B9847EA
S2144013F080BD00BF00140E40F112400080B500AF23
S21440140002481121024B984780BD00BF00160E408F
S214401410F112400080B483B000AF78607B68013B37
S214401420032B1AD801A252F823F000BF3D14400007
S214401430431440004B1440005314400000237B608C
S2144014400EE04FF480737B600AE04FF440737B609D
S21440145006E04FF400737B6002E000237B6000BF31
S2144014600949094B1B6B23F440727B6813430B639B
S21440147000BF054B9B6E03F00803002BF9D00C37DA
S214401480BD465DF8047B704700060E4080B485B0CC
S21440149000AF78601D491D4B1B6B23F070027B68C4
S2144014A013430B634FF48053FB6007E0FB68002B4D
S2144014B001D1012323E0FB68013BFB60134B9B6E8D
S2144014C003F00803002BF1D0104A104B1B6B23F09F
S2144014D0030343F0020313634FF48053FB6007E0BB
S2144014E0FB68002B01D1012309E0FB68013BFB6050
S2144014F0064B9B6E03F00803002BF1D000231846E2
S2144015001437BD465DF8047B704700BF00060E40AA
S21440151080B483B000AF78607B68012B05D1074963
S214401520064B9A68064B13438B60044B054A1A6079
S2144015300C37BD465DF8047B704700BF10180E4060
S214401540000010A5080000A580B400AF094B5B69F9
S21440155003F08003002B07D0074B9B6E03F08003FD
S214401560002B01D0012300E000231846BD465DF85D
S214401570047B704710180E4000060E4080B483B0BF
S21440158000AF78601549154B1A6A154B13430B622A
S21440159000BF124B9B6E03F40033002BF9D00F496B
S2144015A00E4B1A6A0F4B13407A68134343F45C138E
S2144015B00B6200BF094B9B6E03F40033002BF9D03F
S2144015C00649064B1A6A084B134043F45C130B62F9
S2144015D00C37BD465DF8047B704700BF00060E40E2
S2144015E0080037008FFFC8FFFFFFC8FE80B483B0F7
S2144015F000AF786039607B68002B08D01349134BE6
S2144016001B6A134A1A40134B13430B6218E00F49E8
S2144016100E4B1A6A104B13403A68120292B21A43A3
S2144016200E4B13430B6200BF084B9B6E03F0010347
S214401630002BF9D00549054B1A6A094B13430B6238
S2144016400C37BD465DF8047B704700BF00060E4071
S214401650FCFFC8FE02003701FCFFC8FF0100370050
S2144016600000370180B400AF044B9B6E03F4803318
S2144016701846BD465DF8047B704700BF00060E4026
S21440168080B400AF034B4FF000529A62BD465DF8FF
S214401690047B704700060E4080B400AF044B9B6E40
S2144016A003F002031846BD465DF8047B704700BF52
S2144016B000060E4080B400AF044B9B6E03F0400320
S2144016C01846BD465DF8047B704700BF00060E40D6
S2144016D080B483B000AF78607B683F2B01D901238C
S2144016E02FE07B681F2B13D8194B9A697B68012122
S2144016F001FA03F31A407B68012101FA03F39A4288
S2144017001ED0134A7B68012101FA03F3136117E0E8
S2144017107B68203B7B600E4BD3F808217B68012119
S21440172001FA03F31A407B68012101FA03F39A4257
S21440173006D0074A7B68012101FA03F3C2F800315C
S214401740002318460C37BD465DF8047B704700BF43
S21440175000060E40B0B491B000AF786039601B4BC5
S21440176007F10C041D460FCD0FC40FCD0FC495E8EE
S214401770070084E807000023FB63FB6B9B0007F130
S2144017804002134453F8343C3A68B2FBF3F27B68A9
S214401790B2FBF3F3BB63BB6BB3F5807F00D805E0C9
S2144017A0FB6B0133FB63FB6B0A2BE6D9FB6B0A2B07
S2144017B004D8FB6B1A02BB6B134301E04FF6FF7372
S2144017C018464437BD46B0BC704700BFE8CB400023
S2144017D080B584B000AF786039600023FB603B681A
S2144017E01B68002B11D03B681A683B689B68104604
S2144017F01946164B9847B860BB684FF6FF7293423F
S21440180001D1BB681EE0BB68FB603B685B68002B91
S21440181014D03B685A683B689B68104619460B4B89
S2144018209847B860BB684FF6FF72934201D1BB68D9
S21440183008E0BB681B04FA681343FB607B68FA68E1
S2144018401A60002318461037BD4680BD5517400025
S21440185080B487B000AF7860396000237B613B6816
S2144018601B683B613B685B6803F00F033A68927AFB
S214401870520213433A68928A13433A68927D12049E
S21440188013433A68D27D520413433A68127E920458
S21440189013433A68128913437B617A683B69103375
S2144018A05B0113447A691A603B68DA6879683B6979
S2144018B010335B010B445A603B681A6979683B6990
S2144018C05B010B4403F502735A603B689B7D002B1B
S2144018D00DD03B689B8B1B041A463B685B8B1A43B8
S2144018E079683B695B010B4403F506731A607B68B5
S2144018F09A6C3B694FF0011101FA03F3DB43134046
S2144019007B613B689B7F1A463B699A403B68DB7F1E
S21440191019463B6901FA03F31B0413431A467B69D5
S21440192013437B617B687A699A647B685A6C3B692F
S2144019304FF0011101FA03F3DB4313407B613B6830
S21440194093F820301A463B699A403B6893F821301A
S21440195019463B6901FA03F31B0413431A467B6995
S21440196013437B617B687A695A643B69012202FAB9
S21440197003F3FB603B6893F82230002B06D07B686D
S2144019801A6AFB681A437B681A6206E07B681A6A22
S214401990FB68DB431A407B681A623B6893F8243046
S2144019A0022B0BD17B68D3F8C0303A69012101FA8B
S2144019B002F21A437B68C3F8C02024E07B68D3F861
S2144019C0C0303A69012101FA02F2D2431A407B68DC
S2144019D0C3F8C0203B6893F82430012B09D17B68BC
S2144019E09B6E3A69012101FA02F21A437B689A66B5
S2144019F009E07B689B6E3A69012101FA02F2D24304
S214401A001A407B689A663B6893F82530022B0CD1C7
S214401A107B68D3F8C0303A69012101FA02F2120419
S214401A201A437B68C3F8C02027E07B68D3F8C030F1
S214401A303A69012101FA02F21204D2431A407B6845
S214401A40C3F8C0203B6893F82530012B0AD17B6849
S214401A509B6E3A69012101FA02F212041A437B682E
S214401A609A660AE07B689B6E3A69012101FA02F2A7
S214401A701204D2431A407B689A660023BB603B69D7
S214401A80DB003B617B68DB6EBB603B69FF2202FA92
S214401A9003F3DB431A46BB681340BB603B6893F8CE
S214401AA023301A463B6902FA03F31A46BB681343CF
S214401AB0BB607B68BA68DA663B69002B15D13B6829
S214401AC093F82C30012B09D13B689B6A23F07F4367
S214401AD043F080727B68C3F8A02006E03B689B6AB0
S214401AE023F07F427B68C3F8A0207A683B691033B6
S214401AF05B0113441B6823F4002279683B6910336A
S214401B005B010B441A607A683B6910335B011344EF
S214401B101A683B689B6B03F400231A4379683B6959
S214401B2010335B010B441A60002318461C37BD4631
S214401B305DF8047B704700BF80B487B000AFF860A4
S214401B40B9607A60BB681B687B61BB681A697B6852
S214401B509A4202D24FF6FF730BE0BB687A68DA60AF
S214401B60FA687B695B01134403F502737A681A606E
S214401B70002318461C37BD465DF8047B704700BFFF
S214401B8080B483B000AF786039603B68012202FAC7
S214401B9003F31A467B685A600C37BD465DF8047BF3
S214401BA0704700BF80B483B000AF786039603B6850
S214401BB0012202FA03F31A467B689A600C37BD4648
S214401BC05DF8047B704700BF80B483B000AF786098
S214401BD07B68DB6918460C37BD465DF8047B70476A
S214401BE080B485B000AFF860B9607A60BB68012207
S214401BF09A407B681033194601238B4013431A469C
S214401C00FB681A611437BD465DF8047B704700BF19
S214401C1080B485B000AFF860B9607A60BB680122D6
S214401C209A407B681033194601238B4013431A466B
S214401C30FB685A611437BD465DF8047B704700BFA9
S214401C4080B483B000AF78607B6808221A607B68F7
S214401C5020221A607B6804221A600C37BD465DF865
S214401C60047B704780B584B000AF7860396000234D
S214401C70FB607B684FF0FF329A627B681B6A78682D
S214401C800B4B984778680B4B98473B685A683B68BD
S214401C901B68786811461A46074B98470346012B3F
S214401CA001D10123FB60FB6818461037BD4680BD56
S214401CB04D1F4000411C4000BD1C400080B487B012
S214401CC000AFF860B9607A6000237B61BB68164A53
S214401CD0934201D9012321E0BB685B007A68B2FBDE
S214401CE0F3F3043B3B6105E07B6901337B613B6971
S214401CF05B083B613B69FF2B02D97B69062BF3D916
S214401D003B69DAB23B691B029BB21A437B691B04F0
S214401D1003F4E0231A43FB681A61002318461C3775
S214401D20BD465DF8047B7047801A060080B485B0D7
S214401D3000AF786039603B68002B01D100231DE07E
S214401D407B681B78FB603B68012B09DDFB681B0248
S214401D50FB607B6801331B781A46FB681343FB60C5
S214401D603B68022B09DDFB681B02FB607B68023385
S214401D701B781A46FB681343FB60FB68184614370B
S214401D80BD465DF8047B704780B586B000AF78608E
S214401D9039603B68DB687B613B689B683B6143F628
S214401DA09823FB607B69002B01D1012359E07B68B7
S214401DB000225A603B681B7C1B0403F4FE023B680F
S214401DC05B681B0203F44073134343F480527B6802
S214401DD05A607B680022DA603A683B685B68104667
S214401DE01946224B984702467B68DA607B68012298
S214401DF01A6029E07B681B6ABB60BB6803F480738B
S214401E00002B01D005232CE0FB685A1EFA60002BFD
S214401E1001D1092325E07B69012B02D17B68022290
S214401E201A60BB6803F00203002B00D10CE03B694C
S214401E305A1C3A617A68126BD2B21A707B69013BBF
S214401E407B6143F69823FB607B69002BD2D100BFB1
S214401E507B681B6A03F00103002BF9D07B681B6A82
S214401E60002318461837BD4680BD00BF2D1D4000D4
S214401E7080B586B000AF786039603B68DB687B61D0
S214401E803B689B683B617B69002B01D1012356E090
S214401E907B6800225A603B681B7C1B0403F4FE02EE
S214401EA03B685B681B0203F440731A437B685A60C6
S214401EB07B680022DA603A683B685B6810461946E1
S214401EC0214B984702467B68DA6019E07B681B6ABC
S214401ED0FB60FB6803F48073002B01D005232EE0E3
S214401EE0FB6803F00403002B00D109E03B695A1C51
S214401EF03A611B781A467B685A637B69013B7B6173
S214401F007B69002BE2D17B681B6AFB60FB6803F4AD
S214401F108073002B01D0052311E0FB6803F0040317
S214401F20002B04D000BF7B6802221A6000E0EAE77C
S214401F307B681B6A03F00103002BF9D00023184688
S214401F401837BD4680BD00BF2D1D400080B483B00D
S214401F5000AF78607B6880221A607B681B6B0C370A
S214401F60BD465DF8047B704780B485B000AF7860AE
S214401F7039600023FB607B68AC221A603B681A68B5
S214401F803B685B68B2FBF3F31B09FB60FB68002B06
S214401F9003D0FB68B3F5803F01D301230AE07B689A
S214401FA0FA681A623B689A687B685A607B68502277
S214401FB01A60002318461437BD465DF8047B704708
S214401FC080B483B000AF78600B46FB707B685B697B
S214401FD003F00203002B01D1012303E0FA787B686B
S214401FE0DA61002318460C37BD465DF8047B70471F
S214401FF080B483B000AF786039607B685B6903F07B
S2144020000103002B01D1012305E07B689B69DAB20E
S2144020103B681A70002318460C37BD465DF8047BB3
S214402020704700BF80B489B000AFF860B9607A608E
S214402030BB681A017B689A4202D81023FB6101E014
S2144020400823FB617B68DA00FB69B96801FB03F390
S2144020505B081A44FB69B96801FB03F3B2FBF3F370
S214402060BB61BB69DB087B61BB6903F007033B616F
S2144020707B69002B03D07B69B3F5803F01D30123F6
S2144020800FE0FB69082B05D1FB685B6843F4002230
S214402090FB685A603B691A047B691A43FB681A62FC
S2144020A0002318462437BD465DF8047B704700BFC2
S2144020B080B582B000AF786078680D4B98477B68F3
S2144020C000225A607B6800225A627B6800229A622D
S2144020D07868084B98477868074B98477868074B66
S2144020E098477868064B98470837BD4680BD00BF7E
S2144020F045234000A1214000ED21400055224000EC
S2144021007122400080B584B000AFF860B9607A6054
S214402110F8681A4B98471A4B00221A60BB68002B87
S21440212009D0BB681B68F86819467A68154B98470B
S2144021300346002B01D001231BE0BB685A68BB68EE
S2144021409B681A43BB681B691A43BB68DB681A4323
S2144021500B4B1B6813430A4A1360094B1B68084A1B
S2144021601360FB685A68064B1B681A43FB685A6044
S214402170002318461037BD4680BD00BFB120400042
S214402180A00940202520400080B483B000AF78608E
S2144021907B6840221A600C37BD465DF8047B70476A
S2144021A080B483B000AF78607B6888221A600C37B2
S2144021B0BD465DF8047B704780B483B000AF78605E
S2144021C039607B683A689A620C37BD465DF8047B96
S2144021D0704700BF80B483B000AF78607B68102241
S2144021E01A600C37BD465DF8047B704780B483B0F8
S2144021F000AF78607B6824221A600C37BD465DF8D5
S214402200047B704780B483B000AF786039607B68E9
S2144022103A689A600C37BD465DF8047B704700BF4D
S21440222080B483B000AF786039607B683A68DA6023
S2144022300C37BD465DF8047B704700BF80B483B062
S21440224000AF78607B685B6918460C37BD465DF822
S214402250047B704780B483B000AF78607B684FF4EF
S21440226080721A600C37BD465DF8047B704700BF2D
S21440227080B483B000AF78607B684FF400221A6069
S2144022800C37BD465DF8047B704700BF80B483B012
S21440229000AF78607B685B6903F40073002B14BF63
S2144022A001230023DBB218460C37BD465DF8047B9D
S2144022B0704700BF80B483B000AF78607B685B69CE
S2144022C003F00103002B14BF01230023DBB21846A2
S2144022D00C37BD465DF8047B704700BF80B483B0C2
S2144022E000AF786039607B685B6903F00203002BBF
S2144022F001D1012305E03B68C3F308027B68DA613D
S214402300002318460C37BD465DF8047B704700BF77
S21440231080B483B000AF786039607B685B6903F057
S2144023200103002B01D1012306E07B689B69C3F3C0
S21440233008023B681A60002318460C37BD465DF815
S214402340047B704780B483B000AF78607B68044AF3
S214402350C3F8E4200C37BD465DF8047B704700BFE9
S2144023600041535580B582B000AF164B7B60164B8C
S2144023703B607A683B689A420CD007E03B681A1D7F
S2144023803A607A68111D796012681A603B680F4A95
S2144023909342F3D30E4B3B6004E03B681A1D3A6011
S2144023A000221A603B680B4A9342F6D30A4B7B6086
S2144023B00A4A7B6823F07F039360094B9847094B92
S2144023C09847FEE73CDA40000000402014094020D1
S2144023D0140940206C1840200000400000ED00E04A
S2144023E075734000E969400080B400AFFEE700BF67
S2144023F080B400AF514B1B6B03F00303012B14D08A
S214402400012B02D3022B38D07BE04D4B5B6903F0A7
S2144024108003002B04D04B4B4FF400421A6070E010
S214402420484B4FF4FA421A606BE0444B1B6A03F089
S2144024308073002B03D0434B434A1A601CE0414B49
S214402440424A1A603D4B1B6A03F07003102B04D0BF
S214402450202B08D0002B0ED00EE03A4B1B685B00BA
S214402460384A136008E0374B1A6813465B0013443B
S214402470344A136000E000BF43E0304B1B6A03F071
S2144024808073002B03D02F4B2F4A1A601CE02D4B35
S2144024902E4A1A60294B1B6A03F07003102B04D097
S2144024A0202B08D0002B0ED00EE0264B1B685B007E
S2144024B0244A136008E0234B1A6813465B00134413
S2144024C0204A136000E000BF1C4B1B6B03F0030365
S2144024D0022B15D1194B9A6A1D4B13401B0C013326
S2144024E0184A126802FB03F3164A1360134B9B6AA2
S2144024F0DBB2144A1268B2FBF3F3124A1360FFE7EA
S21440250000BF0E4B1B6B03F07003702B08D10D4BB6
S2144025101B68104AA2FB03235B080A4A136009E0C3
S214402520064B1B6B03F070031A09064B1B68D3401F
S214402530044A1360BD465DF8047B704700060E40B3
S21440254010180E4004004020001BB70000093D0054
S2144025500000FF07ABAAAAAA80B483B000AF786099
S2144025607B68184A934204D8174B4FF080621A6033
S21440257023E07B68154A934203D8134B144A1A60EB
S2144025801BE07B68134A934203D80F4B124A1A60EB
S21440259013E07B68114A934203D80B4B104A1A60EB
S2144025A00BE07B680F4A934204D8074B4FF0042257
S2144025B01A6002E0044B0C4A1A600C37BD465DF8C0
S2144025C0047B7047FF2C3101000C0E40FF5962021D
S2144025D000010004FF86930300020004FFB3C40416
S2144025E000030004FFE0F5050005000480B485B054
S2144025F000AF7860104BFB60104B1B68002B02D17D
S2144026000E4B0F4A1A600D4B1B68BB60BA687B685E
S2144026101A44FB689A4202DD4FF0FF3306E0074B50
S2144026201A687B681344054A1360BB68184614371B
S214402630BD465DF8047B7047FCFF4520A40940205A
S214402640703A402080B483B000AF78604FF0FF33DC
S21440265018460C37BD465DF8047B704780B483B09F
S21440266000AF786039603B684FF400525A600023F0
S21440267018460C37BD465DF8047B704780B483B07F
S21440268000AF7860012318460C37BD465DF8047BE2
S214402690704700BF80B485B000AFF860B9607A601C
S2144026A0002318461437BD465DF8047B704700BFCC
S2144026B080B582B000AF78607868054B984703468F
S2144026C078681946034B98470837BD4680BD00BF1B
S2144026D02D764000713D400080B588B000AF03467F
S2144026E0FB710B46BB7113467B71BB793B777B799D
S2144026F07B77FB79002B02D160233B7604E0FB79A5
S214402700012B01D161233B7600233B7200237B7271
S2144027100023BB720023FB6007F11C033B610223CE
S2144027207B6100BF07F1080305481946054B9847EB
S2144027300346002BF6D100BF2037BD4680BD00BF04
S21440274000800140711E400080B588B000AF03464F
S2144027500A46FB711346BB71FB79002B02D16023FE
S2144027603B7604E0FB79012B01D161233B760023C5
S2144027703B7200237B720023BB720023FB60BB1DB1
S2144027803B6101237B6100BF07F108030F481946F0
S2144027900F4B98470346002BF6D114200D4B984715
S2144027A00023FB6007F11F033B6101237B6100BFF1
S2144027B007F1080305481946074B98470346002B80
S2144027C0F6D1FB7F18462037BD4680BD00800140CD
S2144027D0711E4000493A4000891D4000B0B594B093
S2144027E002AF3B1D402218460021454B984700202B
S2144027F000210022434B9847002001210022414BF4
S214402800984700204321C8223E4B9847002002218B
S21440281000223C4B9847002003210022394B984722
S214402820002004210022374B984700200521002233
S214402830344B984700204421334B9847034687F84B
S214402840473000204521304B9847034687F84630AE
S2144028500120002100222B4B984701200121002215
S214402860284B984701204321C822264B98470120F1
S21440287002210022234B9847012003210022214BAE
S21440288098470120042100221E4B9847012005212D
S21440289000221C4B9847012044211B4B9847034677
S2144028A087F8453001204521174B9847034687F85F
S2144028B0443097F84730DBB21D4697F84630DBB2D7
S2144028C01C4697F84530DBB2194697F84430DBB2E1
S2144028D01A463B1D0091019218460C492A4623464B
S2144028E00B4CA0473B1D18460A4B984702463B1DDB
S2144028F018461146084B98474837BD46B0BD00BFFE
S214402900C5734000D92640004927400014CC4000FB
S214402910E17540002D764000713D400080B584B0A2
S21440292000AF0346FB710B46BB7113467B71BB7908
S2144029309B087B73BB7903F003033B737B7B032BC2
S2144029402AD801A252F823F05929400069294000AC
S2144029507929400089294000FB7918460221374BE7
S21440296098470346FB7317E0FB7918460321334B21
S21440297098470346FB730FE0FB79184604212F4B1C
S21440298098470346FB7307E0FB79184605212B4B17
S21440299098470346FB7300BF3B7B5B00FF2202FA6F
S2144029A003F3FB72FB7ADB43FB72FA7BFB7A134042
S2144029B0FB737B79012B06D13B7B5B00012202FA3D
S2144029C003F3BB7304E07B79002B01D10023BB7378
S2144029D0FA7BBB7B1343FB737B7B032B2AD801A27A
S2144029E052F823F0F5294000052A4000152A4000F9
S2144029F0252A4000FA79FB7B104602211A46104BE6
S214402A00984717E0FA79FB7B104603211A460C4B91
S214402A1098470FE0FA79FB7B104604211A46084B8C
S214402A20984707E0FA79FB7B104605211A46044B87
S214402A30984700BF1037BD4680BD00BF49274000BD
S214402A40D926400080B582B000AF03460A46FB71E7
S214402A501346BB71FB79032B00F2888001A252F823
S214402A6023F000BF752A4000B32A4000F12A4000F8
S214402A702F2B4000BB79012000211A463D4B98473A
S214402A80BB79012001211A463A4B9847BB79012071
S214402A9002211A46374B9847BB79002000211A4638
S214402AA0344B9847BB79002001211A46314B984752
S214402AB05CE0BB79012003211A462E4B9847BB7930
S214402AC0012004211A462B4B9847BB79012005214B
S214402AD01A46284B9847BB79002002211A46254BB8
S214402AE09847BB79002003211A46224B98473DE081
S214402AF0BB79012006211A461E4B9847BB79012018
S214402B0007211A461B4B9847BB79012008211A46D5
S214402B10184B9847BB79002004211A46154B984716
S214402B20BB79002005211A46124B98471EE0BB7918
S214402B30012009211A460F4B9847BB7901200A21EC
S214402B401A460C4B9847BB7901200B211A46094B75
S214402B509847BB79002006211A46064B9847BB7912
S214402B60002007211A46034B984700BF0837BD464A
S214402B7080BD00BF1D29400080B48DB000AF786096
S214402B800B46FB707B68FB62FB7887F82B30FB6A52
S214402B907B627B6A3B623B6A5B09FB61FA69174B67
S214402BA013445B02BB6197F82B30012B09D1FB6ABB
S214402BB07B617B6903F01F0301229A40BB691A615F
S214402BC00CE097F82B30002B08D1FB6A3B613B6941
S214402BD003F01F0301229A40BB695A61FB6AFB60FF
S214402BE0FB6803F01F0301229A40BB69C3F8A0208C
S214402BF03437BD465DF8047B704700BF07072000AA
S214402C0080B48BB000AF78600B46FB707B687B620D
S214402C10FB7887F823307B6AFB61FB69BB61BB6945
S214402C205B097B617A69104B13445B023B6197F802
S214402C302330002B09D07B6AFB60FB6803F01F0340
S214402C4001229A403B691A6308E07B6ABB60BB6816
S214402C5003F01F0301229A403B695A632C37BD4656
S214402C605DF8047B704700BF0707200080B489B03A
S214402C7000AF78607B68FB61FB69BB61BB697B61C9
S214402C807B695B093B613A690B4B13445B02DA6B29
S214402C90FB69FB60FB6803F01F03012101FA03F3A5
S214402CA01340002B14BF01230023DBB21846243701
S214402CB0BD465DF8047B70470707200080B485B0AA
S214402CC000AF78600023FB6066E000BF00BF00BF37
S214402CD000BF00BF00BF00BF00BF00BF00BF00BFB7
S214402CE000BF00BF00BF00BF00BF00BF00BF00BFA7
S214402CF000BF00BF00BF00BF00BF00BF00BF00BF97
S214402D0000BF00BF00BF00BF00BF00BF00BF00BF86
S214402D1000BF00BF00BF00BF00BF00BF00BF00BF76
S214402D2000BF00BF00BF00BF00BF00BF00BF00BF66
S214402D3000BF00BF00BF00BF00BF00BF00BF00BF56
S214402D4000BF00BF00BF00BF00BF00BF00BF00BF46
S214402D5000BF00BF00BF00BF00BF00BF00BF00BF36
S214402D6000BF00BF00BF00BF00BF00BF00BF00BF26
S214402D7000BF00BF00BF00BF00BF00BF00BF00BF16
S214402D8000BF00BF00BF00BF00BF00BF00BF00BF06
S214402D9000BFFB680133FB60FA687B689A4294D3B5
S214402DA01437BD465DF8047B704700BF80B483B0DF
S214402DB000AF0346FB71FB79042B17D801A252F8EB
S214402DC023F000BFD92D4000DD2D4000E12D40000E
S214402DD0E52D4000E92D40000F2308E0102306E0D3
S214402DE0112304E0122302E0132300E000231846D8
S214402DF00C37BD465DF8047B704700BF80B584B095
S214402E0000AF0346FB71FB791846084B98470346CC
S214402E10FB73FB7B18460121054B9847FB7B184606
S214402E200021044B98471037BD4680BDAD2D40006D
S214402E30792B4000012C400080B584B000AF03469B
S214402E40FB71FB791846064B98470346FB73FB7BA2
S214402E5018460021034B98471037BD4680BD00BF3B
S214402E60AD2D4000792B400080B584B000AF0346BE
S214402E70FB71FB791846064B98470346FB73FB7B72
S214402E8018460021034B98471037BD4680BD00BF0B
S214402E90AD2D4000792B400080B584B000AF03468E
S214402EA0FB71FB791846074B98470346FB73FB7B41
S214402EB01846054B98470346BB73BB7B18461037EE
S214402EC0BD4680BDAD2D40006D2C400080B483B023
S214402ED000AF78607B68002B1ED0214B00221A6022
S214402EE0204B20221A60204B1E221A601F4B0222C3
S214402EF01A601F4B02221A601E4B1B221A601E4B82
S214402F0000221A601D4BF0221A601D4B23221A60C5
S214402F101C4BCD221A601DE0114B01221A60114B4A
S214402F2007221A60104B07221A60104B02221A60C2
S214402F300F4B00221A600F4B07221A600E4B0222DC
S214402F401A600E4B46221A600D4B08221A600D4B33
S214402F5028221A600C37BD465DF8047B704700BFD8
S214402F60B40A4020B80A4020C00A4020B00A402098
S214402F70CC0A4020D40A4020C40A4020C80A402038
S214402F80D00A4020BC0A402080B584B000AF03463B
S214402F90FB71174B1B681846164B9847FB7918462B
S214402FA0154B9847154B1B681846124B9847FB79AC
S214402FB01846134B9847FB791846124B9847124BC6
S214402FC01B6818460B4B9847FB7918460F4B98479B
S214402FD00346FB60FB7918460A4B98470C4B1B6828
S214402FE01846044B9847FB6818461037BD4680BDC8
S214402FF0B40A4020BD2C4000FD2D4000C80A4020A9
S214403000392E4000692E4000D00A4020992E4000BC
S214403010BC0A402080B584B000AF0346FB71FB7904
S21440302018460D4B98470346FB73FB7B1846012119
S2144030300A4B9847FB7B18460021094B9847094B9B
S2144030401B681846084B9847FB7B18460021034BE5
S21440305098471037BD4680BDAD2D4000792B4000C7
S214403060012C4000B40A4020BD2C400080B582B000
S21440307000AF03463960FB713B68002B09D0FB79F3
S21440308018460E4B98470E4B1B6818460D4B9847F4
S21440309011E0FB7918460C4B98470C4B1B681846BA
S2144030A0084B9847FB791846094B9847094B1B68CD
S2144030B01846044B98470837BD4680BD153040003B
S2144030C0B80A4020BD2C4000FD2D4000C00A4020DC
S2144030D0392E4000B00A402080B584B000AF034689
S2144030E0FB71FB7918460B4B98470B4B1B681846F1
S2144030F00A4B9847FB791846094B98470346FB60AE
S214403100084B1B681846054B9847FB68184610370F
S214403110BD4680BD15304000CC0A4020BD2C400046
S214403120992E4000D40A402080B584B000AF0346B4
S2144031303960FB710023FB600DE03B6803F0010340
S214403140FA7910461946074B98473B685B103B6038
S214403150FB680133FB60FB68072BEEDD1037BD468E
S21440316080BD00BF6D30400080B584B000AF0346E0
S214403170FB710023BB600023FB6010E0BB685B1064
S214403180BB60FB7918460A4B98470346002B03D092
S214403190BB6843F08003BB60FB680133FB60FB68A1
S2144031A0072BEBDDBB6818461037BD4680BD00BF19
S2144031B0D930400080B485B000AF03460A46FB7164
S2144031C01346BB71FA79BB795340FB710023FB6011
S2144031D012E0FB7903F00103002B07D0FB795B0874
S2144031E0DAB26FF073035340FB7102E0FB795B0881
S2144031F0FB71FB680133FB60FB68072BE9DDFB795D
S21440320018461437BD465DF8047B704780B483B0DB
S21440321000AF03463960FB80FB88174A11683A685E
S2144032200A4422F040421549DB000B445A60FB88B2
S214403230124A012122F83310FB88104ADB0013445F
S21440324000229A700C4B1A686FF040439B1A3A68FB
S214403250934206D3FB88094ADB0013440022DA7007
S21440326005E0FB88054ADB0013440122DA700C3780
S214403270BD465DF8047B7047A8094020D80A402028
S21440328080B483B000AF0023FB802DE0FB881E4A4D
S21440329032F83330002B24D01C4B1B78002B05D043
S2144032A0FB88194ADB0013440022DA70FB88164A72
S2144032B0DB001344DB78002B13D1FB88124ADB007B
S2144032C013445A68124B1B689A420AD2FB880E4A2D
S2144032D0002122F83310FB880B4ADB0013440122FE
S2144032E09A70FB880133FB80FB88082BCED9074BAE
S2144032F01B78002B02D0054B00221A700C37BD46B7
S2144033005DF8047B704700BFD80A4020AC094020D7
S214403310A809402080B483B000AF0346FB80FB88FA
S2144033200A4ADB0013449B78002B07D0FB88074AE9
S214403330DB00134400229A70012300E00023184665
S2144033400C37BD465DF8047B704700BFD80A402066
S21440335080B483B000AF0346FB80FB880D4ADB0099
S214403360134400225A60FB880A4A002122F8331090
S214403370FB88084ADB00134400229A70FB88054A03
S214403380DB0013440022DA700C37BD465DF8047B40
S214403390704700BFD80A402080B483B000AF0346D1
S2144033A0FB71084997F907305B09FA7902F01F026A
S2144033B0012000FA02F241F823200C37BD465DF8A2
S2144033C0047B704700E100E080B483B000AF034662
S2144033D0FB71094997F907305B09FA7902F01F0239
S2144033E0012000FA02F2203341F823200C37BD4674
S2144033F05DF8047B704700BF00E100E080B483B016
S21440340000AF0346FB71094997F907305B09FA7923
S21440341002F01F02012000FA02F2603341F8232036
S2144034200C37BD465DF8047B704700BF00E100E006
S21440343080B483B000AF03463960FB7197F907301C
S214403440002B0BDA0D49FB7903F00F03043B3A6877
S214403450D2B25201D2B20B441A7609E0084997F923
S21440346007303A68D2B25201D2B20B4483F80023F6
S2144034700C37BD465DF8047B704700BF00ED00E0AA
S21440348000E100E080B582B000AF78607B68013B29
S214403490B3F1807F01D301230FE00A4A7B68013BEA
S2144034A053604FF0FF300721074B9847054B0022EB
S2144034B09A60044B07221A60002318460837BD4618
S2144034C080BD00BF10E000E03134400080B485B0DD
S2144034D000AF78600B46FB707B685B68FB60FB78F0
S2144034E0FF2B04D1FB6843F08003FB6007E0FB68DA
S2144034F023F08F03FB60FB78FA681343FB607B681E
S214403500FA685A601437BD465DF8047B704700BFC2
S21440351080B483B000AF78607B681B6A9BB2184665
S2144035200C37BD465DF8047B704700BF80B483B05F
S21440353000AF78607B68072B25D801A252F823F0AD
S21440354061354000673540006D35400073354000BA
S214403550773540007B3540007F354000833540005E
S2144035604FF4FA4310E04FF400430DE04FF40043AD
S2144035700AE0084B08E0084B06E0084B04E0084B1E
S21440358002E0064B00E0002318460C37BD465DF8C7
S214403590047B704700093D0000127A00001BB7000C
S2144035A00024F40080B500AF0620054B984702463D
S2144035B013469B0013449A0013449B08184680BD4C
S2144035C02D35400080B500AF024B9847034618465D
S2144035D080BD00BFA535400080B500AF024B984780
S2144035E00346184680BD00BFA535400080B582B072
S2144035F000AF78607868024B98470837BD4680BD74
S214403600D116400080B48BB000AF78600B46FB709C
S2144036107B687B62FB7887F823307B6AFB61FB69BB
S214403620BB61BB695B097B617A69104B13445B02E3
S2144036303B6197F82330002B09D07B6AFB60FB6820
S21440364003F01F0301229A403B691A6308E07B6A35
S214403650BB60BB6803F01F0301229A403B695A6374
S2144036602C37BD465DF8047B704700BF0707200037
S21440367080B58CB000AF78603960484B98470346B9
S2144036807B623B681B68BB623B689B68FB623B682F
S2144036901B68FB603B685B683B613B689B687B6183
S2144036A03B68DB68BB610023FB617B683C4A934216
S2144036B008D107203B4B984707F124037868194602
S2144036C0394B98477B68394A934208D10820354B96
S2144036D0984707F1240378681946334B98477B6828
S2144036E0334A934208D12C202E4B984707F12403A7
S2144036F0786819462C4B98477B682E4A934208D1E7
S2144037002D20284B984707F1240378681946264B06
S21440371098477B68284A934211D10D20214B984701
S2144037201E4B9847024607F10C0378681946234B10
S21440373098477868224B98477868224B98477B682A
S214403740214A934211D10E20164B9847134B984767
S214403750024607F10C0378681946184B9847786874
S214403760174B98477868174B98477B68174A934299
S21440377011D10F200B4B9847084B9847024607F14C
S2144037800C03786819460D4B984778680C4B984759
S21440379078680C4B98473037BD4680BDD9354000D9
S2144037A000080E40ED354000691F4000000A0E40FC
S2144037B0001A0E40001C0E4000400240052140000A
S2144037C089214000D52140000080024000C00240D0
S2144037D080B582B000AF78600B46FB707B68364A97
S2144037E093420AD100BFFB7878681946334B984716
S2144037F00346002BF7D101235AE07B68304A9342B8
S2144038000AD100BFFB78786819462C4B9847034688
S214403810002BF7D101234BE07B682A4A93420AD11A
S21440382000BFFB7878681946244B98470346002B20
S214403830F7D101233CE07B68234A93420AD100BF7C
S214403840FB78786819461D4B98470346002BF7D1FE
S21440385001232DE07B681D4A93420AD100BFFB78C6
S214403860786819461A4B98470346002BF7D1012330
S2144038701EE07B68174A93420AD100BFFB787868FF
S2144038801946134B98470346002BF7D101230FE008
S2144038907B68114A93420AD100BFFB787868194684
S2144038A00B4B98470346002BF7D1012300E000233B
S2144038B018460837BD4680BD00080E40C11F400070
S2144038C0000A0E40001A0E40001C0E400040024007
S2144038D0DD2240000080024000C0024080B584B037
S2144038E000AF786039600023FB607B68334A9342C0
S2144038F007D100BF78683968314B98470346002B9C
S214403900F8D17B682F4A934207D100BF7868396860
S2144039102B4B98470346002BF8D17B682A4A9342A4
S21440392007D100BF78683968254B98470346002B77
S214403930F8D17B68254A934207D100BF786839683A
S2144039401F4B98470346002BF8D17B68204A93428A
S2144039500DD100BF07F10C03786819461D4B9847F8
S2144039600346002BF6D1FB68DAB23B681A707B68D8
S214403970194A93420DD100BF07F10C0378681946E7
S214403980144B98470346002BF6D1FB68DAB23B68E7
S2144039901A707B68114A93420DD100BF07F10C03A1
S2144039A0786819460B4B98470346002BF6D1FB68C0
S2144039B0DAB23B681A701037BD4680BD00080E402C
S2144039C0F11F4000000A0E40001A0E40001C0E4038
S2144039D000400240112340000080024000C00240E8
S2144039E080B582B000AF786039600F4A7B6813605C
S2144039F00E4B0F4A1A600F4B0F4A1A6078683968A8
S214403A000E4B98470E4B1B689B68184600210D4B83
S214403A1098470B4B1B685B6818460021094B984734
S214403A200837BD4680BD00BF2C0A4020280A4020EB
S214403A30D1374000240A4020DD384000713640002F
S214403A40C8044020D574400080B485B000AF78608C
S214403A50074B1B68FB6000BF054B1A68FB68D21A11
S214403A607B689A42F8D31437BD465DF8047B7047AE
S214403A70B409402080B500AF4F4B1B6801334E4A17
S214403A8013604E4B1B6801334C4A13604C4B1B680B
S214403A9001334B4A13604A4B1B6823F04043484A65
S214403AA01360474B1B68002B02D1464B01221A700D
S214403AB0434B1A68444BA3FB02139B094FF47A719D
S214403AC001FB03F3D31A002B01D1404B9847404BE0
S214403AD0DB78002B3FD03E4B1B79012B27D13C4B4C
S214403AE0DB885A1C91B23A4AD180394A528993426D
S214403AF031D9374B1B895A1C91B2354A1181344A09
S214403B00927B92B2934207D3314B0022DA7031480F
S214403B100021314B98471EE02D4B0022DA802C4B7B
S214403B2000221A712B4800212B4B984713E0284B54
S214403B30DB885A1C91B2264AD180254A9289934204
S214403B4009D9234B0022DA80214B01221A712148E1
S214403B500021224B98471E4BDB7B002B2BD01C4B67
S214403B605B8A01339AB21A4B5A82194B1B7C012B43
S214403B7012D1174B5B8AB3F5FA7F1CD9144B00223F
S214403B805A82134B00221A74114B0022DA73152006
S214403B900021134B98470EE00D4B5B8AB3F5FA7F36
S214403BA009D90B4B00225A82094B01221A74152060
S214403BB001210B4B984780BD600B4020B409402044
S214403BC0A8094020AC094020D34D62108132400005
S214403BD0640B402000000240A51B4000811B4000B3
S214403BE00536400080B582B000AF1B481B4B984757
S214403BF078607A6840F202231340002B04D01648BF
S214403C0040F20221164B9847164B1B78DBB2022B2C
S214403C101FD1FB1C10481946134B98470346002BF0
S214403C2017D1124B1B685A1C10490A60FA781A7052
S214403C300F4B1B6801330E4A13600D4B1B68B3F5E0
S214403C40FA6F06D3074B03221A7003480121044B30
S214403C5098470837BD4680BD004002403D224000A0
S214403C6021224000AD09402011234000080040209A
S214403C70B0094020B0B586B000AF144B3C461D4658
S214403C800FCD0FC495E8030084E803000D20104BC9
S214403C909847104B984702463B460F4819460F4BED
S214403CA098470D4804210E4B98470B484FF0FF317C
S214403CB00C4B984708480C4B984707480B4B98477F
S214403CC00D200B4B98471837BD46B0BD44CC40003E
S214403CD0ED354000C535400000400240052140001B
S214403CE0B92140002122400089214000D5214000D2
S214403CF09933400080B582B000AF0A4B98470246E1
S214403D00094BA3FB02239B091846084B984778604B
S214403D107B68002B03D00648064B9847FEE70837DB
S214403D20BD4680BDC5354000D34D62108534400049
S214403D305CCC4000C574400090B585B000AF084BE1
S214403D403C460FCB84E80F000720064B98473B467F
S214403D5005481946054B98471437BD4690BD00BFE9
S214403D6080CC4000ED35400000080E40E139400070
S214403D7080B582B000AF7860396013E07B681B780E
S214403D8010481946104B98470346002B0AD10D4859
S214403D9040F202210D4B98473B68013B3B607B68F5
S214403DA001337B603B68002BE8D100BF0548084BD9
S214403DB098470346002BF9D0002318460837BD46DF
S214403DC080BD00BF00400240DD224000052240008A
S214403DD08D22400080B584B000AF1320094B984731
S214403DE0094B984703467B60084BBB603B1D084821
S214403DF01946084B98470346002B00D0FEE710377D
S214403E00BD4680BDD1164000C5354000801A06002C
S214403E1000800140651C400080B500AF0448054B5B
S214403E2098470246044B1A60044B01221A7080BD24
S214403E3000C003401135400064134020B8094020BC
S214403E4080B500AF0448054B98470246044B1A60BD
S214403E50044B01221A7080BD0040064011354000D8
S214403E60200B4020B809402090B589B000AF2748C5
S214403E70274B98472748264B984707F1080318468C
S214403E80254B98470023BB6007F108031F48194697
S214403E90224B984707F108031E4819461F4B984780
S214403EA03B1D18461E4B984703237B713B1D194804
S214403EB009211A461B4B98473B1D144804211A46B5
S214403EC0184B98473B1D134804211A46154B9847F4
S214403ED03B1D104805211A46124B98470B480021B7
S214403EE0114B98470B4800210F4B984707480C2129
S214403EF00E4A01230E4CA04706480C210D4A0123CA
S214403F000B4CA0472437BD4690BD00BF00C00340C1
S214403F1091124000004006408D0F40000D104000BA
S214403F20ED0F4000FD0E4000CD344000193E4000ED
S214403F3085104000413E400080B582B000AF1E482C
S214403F401E4B984778607B6803F00103002B30D007
S214403F501B4B1B6801331A4A1360194B1B68282BEE
S214403F6027D1184B1B78002B0CD0174B1B680133FE
S214403F70154A1360144B1B68642B0FD1114B00225B
S214403F801A700BE0104B1B68013B0F4A13600E4B38
S214403F901B68322B02D10B4B01221A70084B0022B1
S214403FA01A600A4B00221A60034808493222084B1E
S214403FB098470837BD4680BD00000240C91B4000F8
S214403FC0BC0940200C00402010004020240B40201C
S214403FD0391B400080B584B000AF1F20304B984757
S214403FE030480021304B98472E4801212E4B9847A9
S214403FF02E4B7B600023BB602D4B98470346FB60EF
S2144040003B1D284819462B4B98472B4B00221A81BC
S214404010294B00229A72284B0B225A60264B642268
S2144040201A61254B3222DA60234B00221A601D4863
S2144040302149224B98471B4800210022204B984795
S2144040401D4B4FF480721A811B4B01229A721A4BF9
S2144040500B225A60184B64221A61174B3222DA60E0
S214404060154B01221A600F481349144B98470D48C8
S21440407001210022134B98471F20134B98471F20BF
S214404080124B98471F200021114B98471F20114B79
S214404090984704480021104B98471037BD4680BDCE
S2144040A0D116400000000240A51B4000400D030012
S2144040B0C5354000D1174000240B40205118400021
S2144040C0E11B4000111C4000C9334000FD33400056
S2144040D03134400099334000811B400080B483B0A7
S2144040E000AF78600B467B800C37BD465DF8047B9E
S2144040F0704700BF80B483B000AF78607B68022210
S2144041001A600C37BD465DF8047B704780B582B0B8
S21440411000AF78600B467B807B8840F6FF72934208
S21440412004D07B8878681946094B98477B8840F6C8
S214404130FF72934205D07B88012202FA03F31A46A7
S21440414001E040F6FF727B685A610837BD4680BD85
S214404150DD40400080B582B000AF78600B467B8083
S2144041607B8840F6FF72934204D07B887868194675
S214404170094B98477B8840F6FF72934205D07B8870
S214404180012202FA03F31A4601E040F6FF727B680A
S2144041909A610837BD4680BDDD40400080B48DB092
S2144041A000AF78600B46FB707B68FB62FB7887F855
S2144041B02B30FB6A7B627B6A3B623B6A5B09FB6136
S2144041C0FA69174B13445B02BB6197F82B30012BFF
S2144041D009D1FB6A7B617B6903F01F0301229A4089
S2144041E0BB691A610CE097F82B30002B08D1FB6AAC
S2144041F03B613B6903F01F0301229A40BB695A6149
S214404200FB6AFB60FB6803F01F0301229A40BB6910
S214404210C3F8A0203437BD465DF8047B704700BF26
S2144042200707200080B48BB000AF78600B46FB7069
S2144042307B687B62FB7887F823307B6AFB61FB698F
S214404240BB61BB695B097B617A69104B13445B02B7
S2144042503B6197F82330002B09D07B6AFB60FB68F4
S21440426003F01F0301229A403B691A6308E07B6A09
S214404270BB60BB6803F01F0301229A403B695A6348
S2144042802C37BD465DF8047B704700BF070720000B
S21440429080B489B000AF78607B68FB61FB69BB6126
S2144042A0BB697B617B695B093B613A690B4B134495
S2144042B05B02DA6BFB69FB60FB6803F01F030121BE
S2144042C001FA03F31340002B14BF01230023DBB293
S2144042D018462437BD465DF8047B70470707200024
S2144042E080B48BB000AF78607B687B627B6A3B6251
S2144042F03B6AFB61FB695B09BB61BA69124B1344BD
S2144043005B027B617B6A3B613B6903F01F030122D2
S21440431002FA03F3FB607B69DA6B7B6ABB60BB68BF
S21440432003F01F03012101FA03F31340002B03D0CF
S2144043307B69FA685A6302E07B69FA681A632C372D
S214404340BD465DF8047B70470707200080B582B005
S21440435000AF512001218F4B9847522001218D4BB1
S2144043609847532001218B4B984754200021894B76
S214404370984755200021874B984756200021854B6B
S214404380984751200021844B984752200021824B69
S214404390984753200021804B984754207F4B98479E
S2144043A00346FB7155207D4B98470346BB7156200C
S2144043B07A4B984703467B7154200121754B9847AA
S2144043C055200121734B984756200121714B984741
S2144043D0512000216F4B9847522000216D4B984743
S2144043E0532000216B4B9847542000216A4B984736
S2144043F055200021684B984756200021664B984729
S2144044005120664B984703463B715220634B984772
S2144044100346FB705320614B98470346BB70FB79BD
S2144044201B01DAB2BB79DB00DBB21343DAB27B792D
S2144044309B00DBB21343DAB2FB785B00DBB213437C
S214404440DAB2BB781343DBB27B707B780D3B0D2B27
S21440445000F29B8001A252F823F000BF9544400032
S214404460954440008B4540008B4540008B454000BE
S2144044708B4540008B4540008B45400095444000AE
S214404480954440008B4540008B4540009544400095
S21440449095444000424B1B787A789A425BD1414B18
S2144044A01B685A1C3F490A603F4A127893426BD1B8
S2144044B03E4B98473E483F4B98477B780D3B0D2BED
S2144044C036D801A252F823F0014540001945400075
S2144044D031454000314540003145400031454000BF
S2144044E031454000314540000945400021454000E7
S2144044F031454000314540001145400029454000C7
S2144045002D482C4B984713E02C482A4B98470FE0F1
S2144045102B48284B98470BE02A48264B984707E0FD
S2144045202948244B984703E02848224B984700BF29
S2144045302748204B98471B4B1B681846254B9847E7
S21440454025481C4B9847164A7B781370234A7B783D
S21440455013707B781AE02248164B9847104B1B780E
S21440456018461C4B98471F48124B98477B7818466E
S214404570184B984718480F4B9847094A7B78137052
S214404580084B00221A60FFE700BF00231846083792
S214404590BD4680BD9D4140002542400091424000BE
S2144045A0DF094020E0094020980040205547400061
S2144045B094CC4000B1264000A4CC4000B0CC400093
S2144045C0BCCC4000C8CC4000D4CC4000E0CC40003E
S2144045D0ECCC4000F9484000FCCC4000C0094020EC
S2144045E000CD400010CD400080B582B000AF3A4BC1
S2144045F01B78002B10D00620384B98470346002BDC
S2144046000AD03748374B98470620374B9847324BA7
S21440461000221A7002235BE0344B98470346FB7136
S214404620FB79002B53D02C4B1B78032B47D801A289
S21440463052F823F0454640006B464000874640000F
S214404640A34640002A4B1B78FA799A420CD10620A2
S21440465043F69821274B98471F4B01221A7026484D
S214404660204B9847002333E029E0214B5B78FA79CA
S2144046709A4207D1184B02221A702048194B984785
S214404680002325E01BE01A4B9B78FA799A4207D123
S214404690114B03221A701A48124B9847002317E012
S2144046A00DE0134BDB78FA799A4207D10A4B002289
S2144046B01A7014480B4B9847012309E000BF064B7D
S2144046C000221A701048074B9847022300E0002348
S2144046D018460837BD4680BDC20940201533400005
S2144046E020CD4000B1264000513340004D434000AD
S2144046F01C0040200D32400040CD400054CD4000CC
S21440470068CD40007CCD400090CD400080B500AFE5
S2144047100D4B0122DA700C4B01221A710A4B4FF4F2
S2144047207A725A81084B4FF47A729A81064BFF226E
S2144047309A73054B00221A81034B0022DA80034805
S2144047400021034B984780BD640B40200000024088
S214404750811B400080B500AF0C4B0122DA700B4B3A
S21440476001221A71094B64225A81084B00229A8111
S214404770064B01229A73054B00221A81034B0022F6
S214404780DA8003480021034B984780BD640B4020E5
S21440479000000240811B400080B500AF0248002167
S2144047A01022024B984780BDE4164020C573400057
S2144047B080B584B000AF0346FB710023FB605FE02A
S2144047C0324B1B689B689A68013A9A609B68002B3C
S2144047D041DA2E4B1B689B689A682C4B1B689B687B
S2144047E09B699A4224DB294B1B689B681B68FA79B5
S2144047F0274951F82210FA680A4412781A70234B57
S2144048001B689B681B681B780A2B06D01F4B1B68CF
S2144048109B681A6801321A602FE01C4B1A681B4BC3
S2144048201B689B6810460A211A461A4B984724E094
S214404830164B1968FB79164A52F82320FB68134436
S2144048401B781A46114B1B689B68084611461A4649
S214404850104B984711E00D4B1B689B681B68FA7914
S2144048600B4951F82210FA680A4412781A70074B1E
S2144048701B689B681A6801321A60FB680133FB604C
S214404880FB68062B9CDD1037BD4680BDC804402023
S21440489070004020018C400080B500AF0F20012101
S2144048A0134B98470F200121124B984710200121A7
S2144048B00F4B9847102001210E4B9847112001219D
S2144048C00B4B9847112001210A4B98471220012193
S2144048D0074B984712200121064B98471320012189
S2144048E0034B984713200121024B984780BD00BFD9
S2144048F09D4140002542400080B584B000AF7860BE
S21440490007F10803184606497A68064B984707F1A8
S21440491008031846044B98471037BD4680BD00BF75
S214404920D0CD4000E1754000B126400080B584B04F
S21440493000AF01208B4B98470023FB602DE0FB68BF
S214404940DBB21846884B98470346002B0CBF012322
S2144049500023DBB218468549FA681346DB009B1AEB
S2144049605B000B44083302461A708049FA681346C7
S214404970DB009B1A5B000B4408331B78002B09D0E6
S2144049807B487C4B9847FB6818467B4B98477B4850
S214404990784B9847FB680133FB60FB68042BCEDD01
S2144049A0724B1B7A002B09D0704B9B7D002B05D099
S2144049B0734B01221A7173486E4B98476B4B9B7D25
S2144049C0002B0AD0694B93F82430002B05D06C4B53
S2144049D001225A726C48674B9847644B93F82430D0
S2144049E0002B0AD0614B93F83230002B05D0644B35
S2144049F001229A7365485F4B98475C4B93F8323078
S214404A00002B0AD0594B93F84030002B05D05C4B16
S214404A100122DA745E48574B98470023BB6099E002
S214404A200023FB715149BA681346DB009B1A5B00B2
S214404A300B4408331B78002B00F08980BB68DBB240
S214404A4018463321534B9847BB68DBB21846524B47
S214404A5098470346D8B24549BA681346DB009B1AC6
S214404A605B000B4402461A704049BA681346DB00A6
S214404A709B1A5B000B441B7800201946474B98470F
S214404A800346FB7100233B6025E0BB68DBB218465B
S214404A90414B98470346D8B23449BA681346DB00C0
S214404AA09B1A5B003A6813440B4402465A702F49DF
S214404AB0BA681346DB009B1A5B003A6813440B4403
S214404AC05B78FA7910461946344B98470346FB7193
S214404AD03B6801333B603B68052BD6DDBB68DBB2E9
S214404AE018462D4B98470346D8B22049BA68134615
S214404AF0DB009B1A5B000B440246DA711B49BA681E
S214404B001346DB009B1A5B000B44DB79FA799A422A
S214404B101DD0234B1B7BD9B20122BB6802FA03F39C
S214404B20DBB20A461343DBB2DAB21D4B1A730F49A7
S214404B30BA681346DB009B1A5B000B44083300221E
S214404B401A7018480B4B9847174B08221A70BB68C8
S214404B500133BB60BB68042B7FF762AF1037BD469E
S214404B6080BD00BFCD2E4000892F400074164020E7
S214404B70D4CD4000B1264000F9484000FCCC40006F
S214404B80BC164020F0CD400004CE400018CE400079
S214404B902CCE40002931400069314000B5314000FC
S214404BA0E416402040CE4000C309402080B487B081
S214404BB000AF0346FB714FF000037B614FF00003EC
S214404BC03B61FA79104913469B0013440B445B78CB
S214404BD0FB73FB7B0D4A32F81330BB60FA790A4907
S214404BE013469B0013440B4401221A70BB68B3F56E
S214404BF0FA6F01D8012300E0002318461C37BD4653
S214404C005DF8047B704700BFF8164020241740200C
S214404C1080B582B000AF00237B6029E017497A68F0
S214404C2013469B0013440B441B79FB70FA781449D7
S214404C301346DB009B1A5B000B4408331B78002BA3
S214404C4013D07B68DBB218460E4B98470346002BC2
S214404C500CBF01230023DBB2184608497A68134686
S214404C609B0013440B4402469A707B6801337B607A
S214404C707B68072BD2DD0837BD4680BDF81640203E
S214404C8074164020AD4B400080B582B000AF03465E
S214404C90FB71FB79032B00F2838001A252F823F0CC
S214404CA0B14C4000ED4C4000294D4000654D400061
S214404CB040480921404B98473E48404B9847404B18
S214404CC000221A7000BF3E4B1B7883F00103DBB214
S214404CD0002BF8D1FB793B4A126891B23A4A22F847
S214404CE0131034480921394B984759E03848042175
S214404CF0314B98473648314B9847314B00221A7013
S214404D0000BF2F4B1B7883F00103DBB2002BF8D19A
S214404D10FB79304A126891B22B4A22F813102C487D
S214404D2004212A4B98473BE022480421224B9847CF
S214404D302048224B9847224B00221A7000BF204B37
S214404D401B7883F00103DBB2002BF8D1FB791D4AB8
S214404D50126891B21C4A22F81310164804211B4BC5
S214404D6098471DE013480521134B98471148134BAD
S214404D709847134B00221A7000BF114B1B7883F0E4
S214404D800103DBB2002BF8D1FB790E4A126891B2D0
S214404D900D4A22F81310074805210C4B984700BFD0
S214404DA0FB79094A32F813301BB218460837BD461D
S214404DB080BD00BF004006400D414000F540400029
S214404DC0B8094020200B40206C134020554140003D
S214404DD000C003406413402090B5A1B002AF034624
S214404DE0FB710023A7F858300023A7F85A30002359
S214404DF0A7F85C300023A7F85E300023A7F86030A1
S214404E000023A7F862300023A7F864300023A7F8F1
S214404E10663000237B670023BB66FB79184601217A
S214404E20374B98476420374B984700233B6725E02D
S214404E30FB791846344B984703469AB23B6F5B0063
S214404E4007F178010B4423F8202C3B6F5B0007F1F9
S214404E507802134433F8203C9BB21BB2002B0ADB8B
S214404E603B6F5B0007F17802134433F8203C1A4648
S214404E707B6F13447B673B6F01333B673B6F072B6E
S214404E80D6DD7B6FDB08BB66FB79184600211C4BE2
S214404E90984707F108031846002150221B4B9847B5
S214404EA00023FB6618E0FA79FB6E5B0007F1780199
S214404EB00B4433F8203C194607F108030091184686
S214404EC01349FB6E134CA04707F108031846124BD4
S214404ED09847FB6E0133FB66FB6E072BE3DDBB6E2C
S214404EE0B3F5406F04D3BB6E03F40043002B01D0F0
S214404EF0012300E0002318467C37BD4690BD00BF26
S214404F00452A4000493A4000894C4000C57340005D
S214404F1060CE4000E1754000B126400080B582B0CA
S214404F2000AF00237B602DE019497A6813469B004A
S214404F3013440B441B79002B21D07B68DBB2184608
S214404F40144B98470346184611497A6813469B0007
S214404F5013440B440246DA700D497A6813469B00A8
S214404F6013440B44DB78002B09D00B480B4B984777
S214404F707B6818460A4B98470A48084B98477B6810
S214404F8001337B607B68032BCEDD0837BD4680BD92
S214404F90BC164020D94D400080CE4000B12640008F
S214404FA0F9484000FCCC400080B586B000AF0346D0
S214404FB0FB710B46BB7113467B71FB79002B3CD0D3
S214404FC0012B40F096804C484C4B984700237B6121
S214404FD022E001227B6902FA03F3FB72FA7ABB797C
S214404FE01340DBB2002B14D07B691846444B9847DD
S214404FF04448424B9847444B1B78D9B201227B69C0
S21440500002FA03F3DBB20A461343DBB2DAB23E4B94
S2144050101A707B6901337B617B69072BD9DD3B487E
S214405020364B98477B79002B06D03948334B984708
S214405030384B08221A705CE05BE037482F4B9847A5
S21440504000233B611DE001223B6902FA03F3FB7239
S214405050FA7ABB791340DBB2002B0FD03B69184677
S214405060274B98472748254B9847274B5B68012195
S2144050703A6901FA02F21343234A53603B6901330B
S2144050803B613B69072BDEDD0023FB601FE001220E
S214405090FB6802FA03F3FB72FA7A7B791340DBB2C1
S2144050A0002B11D0FB6808331846154B9847154817
S2144050B0124B9847144B5B68FA680832012101FA94
S2144050C002F21343104A5360FB680133FB60FB68EF
S2144050D0032BDCDD0D48094B98477B7903F0F00342
S2144050E0002B05D00D48054B98470A4B08221A70EE
S2144050F000BF1837BD4680BD9CCE4000B12640005C
S214405100F9484000BCCE4000E4164020FCCC4000AD
S214405110C0CE4000C3094020FCCE40001CCF40001B
S21440512080B586B000AF0023FB7500233B610EE0E0
S2144051306A493A6913469B0013440B441B79002B7B
S21440514002D0FB7D0133FB753B6901333B613B6914
S214405150032BEDDDFB7D002B00F0AD8000204321CE
S214405160C8225F4B984701204321C8225C4B984792
S2144051700023FB6011E05949FA6813469B0013442C
S2144051800B441B79002B05D0FB68DBB21846012187
S214405190544B9847FB680133FB60FB68032BEADD02
S2144051A06420514B98470020012140224C4B9847A1
S2144051B00120012140224A4B9847002001214B4BB9
S2144051C098470346FB71FB7903F04003002B25D13B
S2144051D000204421454B984703461A46444B1A70D4
S2144051E000204521414B984703461A46414B1A70CA
S2144051F03F4B1B78002B03D13E4B1B78002B0CD02B
S2144052003D4B1B78002B08D1394B1A78394B1B780D
S214405210012011461A46394B984700E0CDE7012059
S2144052200121324B98470346BB71BB7903F04003DC
S214405230002B26D1012044212C4B984703461A4682
S2144052402F4B1A7001204521284B984703461A4693
S2144052502C4B1A702A4B1B78002B03D1294B1B78FA
S214405260002B0DD0244B1B78002B09D1244B1A78E9
S214405270244B1B78002011461A46204B984701E0E5
S21440528000E0CCE70023BB6008E0BB68DBB2184612
S2144052900021144B9847BB680133BB60BB68032BA7
S2144052A0F3DD00204321C8220D4B984701204321BF
S2144052B0C8220B4B98470E4B1A78134B1A70114B5B
S2144052C01B781B020E4A127813431A460E4B5A603E
S2144052D0094B00221A701837BD4680BDBC164020C8
S2144052E0D9264000452A4000BD2C400049274000B2
S2144052F0DA094020DB09402015004020A94F400035
S214405300DC094020DD094020E416402080B582B00C
S21440531000AF534B9847534B00221A70524B002213
S2144053201A7000237B600AE050497A6813469B0057
S21440533013440B4400221A707B6801337B607B6801
S214405340032BF1DD494B1B79002B1DD0484B9B7836
S214405350002B19D1464BDB79002B15D1424B1B78DD
S2144053600133DAB2404B1A70404BDB78002B0BD03F
S2144053703E4B01221A703B4B1B780133DAB2394B55
S2144053801A703C483C4B9847384B5B7A002B1DD0F4
S214405390374B1B7B002B19D1354B5B7C002B15D133
S2144053A0314B1B780133DAB22F4B1A702F4B1B7AD6
S2144053B0002B0BD02D4B01225A712A4B1B78013300
S2144053C0DAB2284B1A702D482B4B9847274B9B7BBD
S2144053D0002B1DD0264B9B7D002B19D1244BDB7E0A
S2144053E0002B15D1204B1B780133DAB21E4B1A70B6
S2144053F01E4B5B7B002B0BD01C4B01229A72194B29
S2144054001B780133DAB2174B1A701D481A4B98476F
S214405410164BDB7C002B1FD0154B93F82030002B0F
S2144054201AD1134B93F82530002B15D10E4B1B7811
S2144054300133DAB20C4B1A700C4B9B7C002B0BD012
S2144054400A4B0122DA73074B1B780133DAB2054B5D
S2144054501A700C48084B98470837BD4680BD00BFB9
S21440546021514000E6174020BA164020BC16402086
S214405470F816402058CF4000B12640006CCF400080
S21440548080CF400094CF400080B400AF034B1B78E1
S2144054901846BD465DF8047B704700BFE6174020BF
S2144054A080B400AF034B1B781846BD465DF8047BBE
S2144054B0704700BFBA16402080B485B000AF0346A0
S2144054C0FB71FA791F4913469B0013440B445B78E3
S2144054D0FB73FA7B1C491346DB009B1A5B000B44AC
S2144054E00833DB78BB73BA7B184913469B001344DA
S2144054F00B441B787B73FA79124913469B0013447E
S2144055000B449B78FB73FA7B0F491346DB009B1AD0
S2144055105B000B4408339B78BB73BA7B0B4913463E
S2144055209B0013440B441B783B733A7B7B7B934234
S21440553038BF1346FB72FB7A18461437BD465DF8F3
S214405540047B7047BC16402074164020F816402056
S21440555080B500AF00200021084B9847012000216D
S214405560064B984702200021044B98470320002111
S214405570024B98470248034B984780BD452A400057
S214405580A8CF4000B126400080B487B000AF0346A5
S214405590FB710023FB75FB79042B00F2B58001A25A
S2144055A052F823F0B95540007D5640008D564000D5
S2144055B0BB564000F35640000023FB7500233B617A
S2144055C055E0554A3B6912F83320FB7D1344FB7582
S2144055D0514A3B69DB0013445A78FB7D1344FB7504
S2144055E04D4A3B69DB0013449A78FB7D1344FB75B8
S2144055F0494A3B69DB001344DA78FB7D1344FB756C
S214405600454A3B69DB0013441A79FB7D1344FB751E
S214405610414A3B69DB0013445A79FB7D1344FB75D2
S2144056203D4A3B69DB0013449B79C3F34003DBB23E
S2144056301A46FB7D1344FB75374A3B69DB0013442F
S2144056409B79C3F38003DBB21A46FB7D1344FB759C
S214405650314A3B69DB0013449B79C3F30003DBB25A
S2144056601A46FB7D1344FB753B6901333B613B693E
S2144056705F2BA6DDFB7DDB43FB7545E0274B1B68B8
S214405680C3F31303DBB2DB43FB753DE00023FB753E
S2144056900023FB600AE0224AFB6832F81330DAB295
S2144056A0FB7D1344FB75FB680133FB60FB685F2B97
S2144056B0F1DDFB7DDB43FB7526E00023FB75002315
S2144056C0BB6009E0174ABB6813441A78FB7D134455
S2144056D0FB75BB680133BB60BB685F2BF2DD114BCB
S2144056E01B6EDAB2FB7D1344FB75FB7DDB43FB751B
S2144056F00AE00023FB750C4B1A78FB7D1344FB75C0
S214405700FB7DDB43FB7500BFFB7D18461C37BD4663
S2144057105DF8047B704700BF74134020201740207C
S21440572024174020E8174020F416402080B582B069
S21440573000AF00237B600FE0104A7B68DB00134419
S2144057409B79C3F38003DBB2002B02D17B68DBB2CC
S2144057500FE07B6801337B607B685F2BECD90848A1
S214405760084B9847084B01229A73084B08221A7038
S214405770FF2318460837BD4680BD00BF741340203F
S214405780DCCF4000B1264000E4164020C30940204C
S21440579080B582B000AF2F4B984703467B717B792C
S2144057A0FB710023BB714FE0BA792B4913469B002F
S2144057B013440B441B793B71BB7903F00103DBB206
S2144057C0002B14BF01230023DBB2FB703A79234938
S2144057D01346DB009B1A5B000B4408331B78002BF8
S2144057E02FD0BB791E4AD35CFF2B2AD1FB79DB0036
S2144057F01C4A99183A791346DB009B1A5B00174AF5
S21440580013440133084619460622174B9847FB793E
S214405810FA7802F00102D1B2124ADB0013449A79B8
S21440582061F300029A71FB790E4ADB0013449A79C1
S21440583042F004029A71BA79FB79591CF971084909
S2144058408B54BB790133BB71BB79072BACD9083776
S214405850BD4680BD2D574000F816402074164020A7
S214405860DC164020741340208976400080B400AF98
S214405870044B1B6E0133034A1366BD465DF8047B3A
S214405880704700BFE817402080B500AF114B1B683B
S214405890C3F313035A1CC2F313020E490B6862F398
S2144058A013030B600C4B1B6801330B4A13600A4B07
S2144058B01B68052B02D9084B00221A600120074BB3
S2144058C0984703461946034A538861F30B1353809F
